:0B008800EF1FAC0670011E4C70F6224A
:100003007508027509587B587A02900258E509155C
:1000130009AE08700215084E600BB2A57F2C7E0155
:1000230012008880E8E4F508F509C2A5EB1BAE02CF
:1000330070011A4E6014C2A57F967E00120088D20A
:10004300A57FFA7E0012008880E2E4FAFBC2A5E5F0
:10005300821582AE83700215834E6014C2A57FC8D9
:100063007E00120088D2A57F2C7E0112008880DFDB
:09007300E4F583F582C2A5809436
:0300000002007C7F
:0C007C00787FE4F6D8FD758109020003CE
:00000001FF
